{"abi":[{"type":"constructor","inputs":[{"name":"_wIDRToken","type":"address","internalType":"address"},{"name":"_ticketNFT","type":"address","internalType":"address"}],"stateMutability":"nonpayable"},{"type":"function","name":"PERCENTAGE_DENOMINATOR","inputs":[],"outputs":[{"name":"","type":"uint256","internalType":"uint256"}],"stateMutability":"view"},{"type":"function","name":"claimTicketNFT","inputs":[{"name":"tokenId","type":"uint256","internalType":"uint256"},{"name":"claimer","type":"address","internalType":"address"}],"outputs":[],"stateMutability":"nonpayable"},{"type":"function","name":"completeEvent","inputs":[{"name":"eventId","type":"string","internalType":"string"}],"outputs":[],"stateMutability":"nonpayable"},{"type":"function","name":"createEvent","inputs":[{"name":"eventId","type":"string","internalType":"string"},{"name":"receivers","type":"address[]","internalType":"address[]"},{"name":"percentages","type":"uint256[]","internalType":"uint256[]"}],"outputs":[],"stateMutability":"nonpayable"},{"type":"function","name":"eventEscrowBalance","inputs":[{"name":"","type":"string","internalType":"string"}],"outputs":[{"name":"","type":"uint256","internalType":"uint256"}],"stateMutability":"view"},{"type":"function","name":"events","inputs":[{"name":"","type":"string","internalType":"string"}],"outputs":[{"name":"eventId","type":"string","internalType":"string"},{"name":"isCompleted","type":"bool","internalType":"bool"},{"name":"totalEscrow","type":"uint256","internalType":"uint256"}],"stateMutability":"view"},{"type":"function","name":"getEventReceivers","inputs":[{"name":"eventId","type":"string","internalType":"string"}],"outputs":[{"name":"","type":"address[]","internalType":"address[]"},{"name":"","type":"uint256[]","internalType":"uint256[]"}],"stateMutability":"view"},{"type":"function","name":"getReceiverBalance","inputs":[{"name":"eventId","type":"string","internalType":"string"},{"name":"receiver","type":"address","internalType":"address"}],"outputs":[{"name":"","type":"uint256","internalType":"uint256"},{"name":"","type":"bool","internalType":"bool"}],"stateMutability":"view"},{"type":"function","name":"owner","inputs":[],"outputs":[{"name":"","type":"address","internalType":"address"}],"stateMutability":"view"},{"type":"function","name":"purchaseTicket","inputs":[{"name":"eventId","type":"string","internalType":"string"},{"name":"buyer","type":"address","internalType":"address"},{"name":"amount","type":"uint256","internalType":"uint256"},{"name":"metadataURI","type":"string","internalType":"string"}],"outputs":[{"name":"","type":"uint256","internalType":"uint256"}],"stateMutability":"nonpayable"},{"type":"function","name":"receiverBalances","inputs":[{"name":"","type":"string","internalType":"string"},{"name":"","type":"address","internalType":"address"}],"outputs":[{"name":"balance","type":"uint256","internalType":"uint256"},{"name":"withdrawn","type":"bool","internalType":"bool"}],"stateMutability":"view"},{"type":"function","name":"renounceOwnership","inputs":[],"outputs":[],"stateMutability":"nonpayable"},{"type":"function","name":"ticketNFT","inputs":[],"outputs":[{"name":"","type":"address","internalType":"contract TicketNFT"}],"stateMutability":"view"},{"type":"function","name":"transferOwnership","inputs":[{"name":"newOwner","type":"address","internalType":"address"}],"outputs":[],"stateMutability":"nonpayable"},{"type":"function","name":"wIDRToken","inputs":[],"outputs":[{"name":"","type":"address","internalType":"contract WIDR"}],"stateMutability":"view"},{"type":"function","name":"withdraw","inputs":[{"name":"eventId","type":"string","internalType":"string"},{"name":"wallet","type":"address","internalType":"address"}],"outputs":[],"stateMutability":"nonpayable"},{"type":"event","name":"EventCompleted","inputs":[{"name":"eventId","type":"string","indexed":true,"internalType":"string"}],"anonymous":false},{"type":"event","name":"OwnershipTransferred","inputs":[{"name":"previousOwner","type":"address","indexed":true,"internalType":"address"},{"name":"newOwner","type":"address","indexed":true,"internalType":"address"}],"anonymous":false},{"type":"event","name":"RevenueDistributed","inputs":[{"name":"eventId","type":"string","indexed":true,"internalType":"string"},{"name":"receiver","type":"address","indexed":true,"internalType":"address"},{"name":"amount","type":"uint256","indexed":false,"internalType":"uint256"}],"anonymous":false},{"type":"event","name":"TicketPurchased","inputs":[{"name":"eventId","type":"string","indexed":true,"internalType":"string"},{"name":"buyer","type":"address","indexed":true,"internalType":"address"},{"name":"amount","type":"uint256","indexed":false,"internalType":"uint256"},{"name":"nftTokenId","type":"uint256","indexed":false,"internalType":"uint256"}],"anonymous":false},{"type":"event","name":"Withdrawn","inputs":[{"name":"eventId","type":"string","indexed":true,"internalType":"string"},{"name":"receiver","type":"address","indexed":true,"internalType":"address"},{"name":"amount","type":"uint256","indexed":false,"internalType":"uint256"}],"anonymous":false},{"type":"error","name":"OwnableInvalidOwner","inputs":[{"name":"owner","type":"address","internalType":"address"}]},{"type":"error","name":"OwnableUnauthorizedAccount","inputs":[{"name":"account","type":"address","internalType":"address"}]},{"type":"error","name":"ReentrancyGuardReentrantCall","inputs":[]}],"bytecode":{"object":"0x608060405234801562000010575f80fd5b506040516200187f3803806200187f833981016040819052620000339162000126565b60017f9b779b17422d0df92223018b32b4d1fa46e071723d6817e2486d003becc55f005533806200007d57604051631e4fbdf760e01b81525f600482015260240160405180910390fd5b6200008881620000bb565b50600180546001600160a01b039384166001600160a01b031991821617909155600280549290931691161790556200015c565b5f80546001600160a01b038381166001600160a01b0319831681178455604051919092169283917f8be0079c531659141344cd1fd0a4f28419497f9722a3daafe3b4186f6b6457e09190a35050565b80516001600160a01b038116811462000121575f80fd5b919050565b5f806040838503121562000138575f80fd5b62000143836200010a565b915062000153602084016200010a565b90509250929050565b611715806200016a5f395ff3fe608060405234801561000f575f80fd5b50600436106100fb575f3560e01c8063b3cd425411610093578063eafd221a11610063578063eafd221a14610265578063f2fde38b14610278578063fce400971461028b578063ff43d9c41461029e575f80fd5b8063b3cd425414610223578063c4fd48d31461022c578063d62754241461023f578063dd48622e14610252575f80fd5b80638da5cb5b116100ce5780638da5cb5b146101cb5780639673d6a3146101db578063a74c99b7146101fd578063b393391b14610210575f80fd5b80630c711a74146100ff57806313e39cd61461013d578063154d507a14610196578063715018a6146101c1575b5f80fd5b61012a61010d3660046110e3565b805160208183018101805160058252928201919093012091525481565b6040519081526020015b60405180910390f35b61018161014b366004611130565b81516020818401810180516004825292820194820194909420919093529091525f90815260409020805460019091015460ff1682565b60408051928352901515602083015201610134565b6001546101a9906001600160a01b031681565b6040516001600160a01b039091168152602001610134565b6101c96102bf565b005b5f546001600160a01b03166101a9565b6101ee6101e93660046110e3565b6102d2565b604051610134939291906111c8565b6101c961020b3660046111ec565b610389565b6002546101a9906001600160a01b031681565b61012a61271081565b61012a61023a36600461120d565b6103f6565b61018161024d366004611130565b6106e7565b6101c9610260366004611130565b610737565b6101c96102733660046110e3565b6109a0565b6101c9610286366004611286565b610bc2565b6101c9610299366004611335565b610bff565b6102b16102ac3660046110e3565b610ddd565b604051610134929190611410565b6102c7610ebd565b6102d05f610ee9565b565b80516020818301810180516003825292820191909301209152805481906102f890611492565b80601f016020809104026020016040519081016040528092919081815260200182805461032490611492565b801561036f5780601f106103465761010080835404028352916020019161036f565b820191905f5260205f20905b81548152906001019060200180831161035257829003601f168201915b505050506003830154600490930154919260ff1691905083565b610391610ebd565b600254604051630c48656b60e31b8152600481018490526001600160a01b038381166024830152909116906362432b58906044015f604051808303815f87803b1580156103dc575f80fd5b505af11580156103ee573d5f803e3d5ffd5b505050505050565b5f6103ff610ebd565b610407610f38565b5f60038660405161041891906114ca565b908152604051908190036020019020600101541161046d5760405162461bcd60e51b815260206004820152600d60248201526c4576656e74206d697373696e6760981b60448201526064015b60405180910390fd5b60038560405161047d91906114ca565b9081526040519081900360200190206003015460ff16156104e05760405162461bcd60e51b815260206004820152601760248201527f4576656e7420616c726561647920636f6d706c657465640000000000000000006044820152606401610464565b6001546040516323b872dd60e01b8152336004820152306024820152604481018590526001600160a01b03909116906323b872dd906064016020604051808303815f875af1158015610534573d5f803e3d5ffd5b505050506040513d601f19601f8201168201806040525081019061055891906114e5565b6105945760405162461bcd60e51b815260206004820152600d60248201526c151c985b9cd9995c8819985a5b609a1b6044820152606401610464565b826005866040516105a591906114ca565b90815260200160405180910390205f8282546105c19190611518565b92505081905550826003866040516105d991906114ca565b90815260200160405180910390206004015f8282546105f89190611518565b90915550506002546040516302c75ce560e41b81525f916001600160a01b031690632c75ce509061062d908690600401611531565b6020604051808303815f875af1158015610649573d5f803e3d5ffd5b505050506040513d601f19601f8201168201806040525081019061066d9190611543565b9050846001600160a01b03168660405161068791906114ca565b6040805191829003822087835260208301859052917f7f4b2ac1fe080eb1d8479b807a95a9e2d7038e3c5a2e065b435dc0015dc117dc910160405180910390a390506106df60015f805160206116c083398151915255565b949350505050565b5f805f6004856040516106fa91906114ca565b908152604080519182900360209081019092206001600160a01b0387165f90815292529020805460019091015490935060ff169150509250929050565b61073f610f38565b5f60048360405161075091906114ca565b908152604080519182900360209081018320335f908152915220915060039061077a9085906114ca565b9081526040519081900360200190206003015460ff166107c75760405162461bcd60e51b81526020600482015260086024820152674e6f7420646f6e6560c01b6044820152606401610464565b80546108005760405162461bcd60e51b815260206004820152600860248201526716995c9bc818985b60c21b6044820152606401610464565b600181015460ff16156108445760405162461bcd60e51b815260206004820152600c60248201526b416c726561647920746f6f6b60a01b6044820152606401610464565b80546001808301805460ff1916909117905560405181906005906108699087906114ca565b90815260200160405180910390205f828254610885919061155a565b909155505060015460405163a9059cbb60e01b81526001600160a01b038581166004830152602482018490529091169063a9059cbb906044016020604051808303815f875af11580156108da573d5f803e3d5ffd5b505050506040513d601f19601f820116820180604052508101906108fe91906114e5565b61093a5760405162461bcd60e51b815260206004820152600d60248201526c151c985b9cd9995c8819985a5b609a1b6044820152606401610464565b604051339061094a9086906114ca565b604051908190038120838252907f9654f0a6acd7acb6401bdd91b9bccb0e6f9fe2d6f18a7e84b13e624c51ee39ac9060200160405180910390a3505061099c60015f805160206116c083398151915255565b5050565b6109a8610ebd565b5f6003826040516109b991906114ca565b9081526040519081900360200190206001810154909150610a0c5760405162461bcd60e51b815260206004820152600d60248201526c4576656e74206d697373696e6760981b6044820152606401610464565b600381015460ff1615610a4a5760405162461bcd60e51b815260040161046490602080825260049082015263446f6e6560e01b604082015260600190565b5f600583604051610a5b91906114ca565b90815260200160405180910390205490505f5b6001830154811015610b70575f836001018281548110610a9057610a9061156d565b5f9182526020822001546002860180546001600160a01b0390921693509084908110610abe57610abe61156d565b5f9182526020822001549150612710610ad78387611581565b610ae19190611598565b905080600488604051610af491906114ca565b9081526040805191829003602090810183206001600160a01b0388165f818152919092529190912092909255610b2b9089906114ca565b604051908190038120838252907f2d204ee8493830c55ca476f38f654ff7a973e4d75b1208bf2eb52a7d466c4e8e9060200160405180910390a3505050600101610a6e565b5060038201805460ff19166001179055604051610b8e9084906114ca565b604051908190038120907f27c0babbf0330adadcc73014d6b074813a2dac3025c1aa8f7fba3031d3f91e55905f90a2505050565b610bca610ebd565b6001600160a01b038116610bf357604051631e4fbdf760e01b81525f6004820152602401610464565b610bfc81610ee9565b50565b610c07610ebd565b8051825114610c4a5760405162461bcd60e51b815260206004820152600f60248201526e098cadccee8d040dad2e6dac2e8c6d608b1b6044820152606401610464565b600383604051610c5a91906114ca565b9081526040519081900360200190206001015415610ca95760405162461bcd60e51b815260206004820152600c60248201526b4576656e742065786973747360a01b6044820152606401610464565b5f805b8251811015610ce457828181518110610cc757610cc761156d565b602002602001015182610cda9190611518565b9150600101610cac565b506127108114610d275760405162461bcd60e51b815260206004820152600e60248201526d4261642070657263656e7461676560901b6044820152606401610464565b6040518060a001604052808581526020018481526020018381526020015f151581526020015f815250600385604051610d6091906114ca565b90815260405190819003602001902081518190610d7d9082611603565b506020828101518051610d969260018501920190610f82565b5060408201518051610db2916002840191602090910190610fe5565b50606082015160038201805460ff191691151591909117905560809091015160049091015550505050565b6060805f600384604051610df191906114ca565b90815260200160405180910390209050806001018160020181805480602002602001604051908101604052809291908181526020018280548015610e5c57602002820191905f5260205f20905b81546001600160a01b03168152600190910190602001808311610e3e575b5050505050915080805480602002602001604051908101604052809291908181526020018280548015610eac57602002820191905f5260205f20905b815481526020019060010190808311610e98575b505050505090509250925050915091565b5f546001600160a01b031633146102d05760405163118cdaa760e01b8152336004820152602401610464565b5f80546001600160a01b038381166001600160a01b0319831681178455604051919092169283917f8be0079c531659141344cd1fd0a4f28419497f9722a3daafe3b4186f6b6457e09190a35050565b610f40610f53565b60025f805160206116c083398151915255565b5f805160206116c0833981519152546002036102d057604051633ee5aeb560e01b815260040160405180910390fd5b828054828255905f5260205f20908101928215610fd5579160200282015b82811115610fd557825182546001600160a01b0319166001600160a01b03909116178255602090920191600190910190610fa0565b50610fe192915061101e565b5090565b828054828255905f5260205f20908101928215610fd5579160200282015b82811115610fd5578251825591602001919060010190611003565b5b80821115610fe1575f815560010161101f565b634e487b7160e01b5f52604160045260245ffd5b604051601f8201601f1916810167ffffffffffffffff8111828210171561106f5761106f611032565b604052919050565b5f82601f830112611086575f80fd5b813567ffffffffffffffff8111156110a0576110a0611032565b6110b3601f8201601f1916602001611046565b8181528460208386010111156110c7575f80fd5b816020850160208301375f918101602001919091529392505050565b5f602082840312156110f3575f80fd5b813567ffffffffffffffff811115611109575f80fd5b6106df84828501611077565b80356001600160a01b038116811461112b575f80fd5b919050565b5f8060408385031215611141575f80fd5b823567ffffffffffffffff811115611157575f80fd5b61116385828601611077565b92505061117260208401611115565b90509250929050565b5f5b8381101561119557818101518382015260200161117d565b50505f910152565b5f81518084526111b481602086016020860161117b565b601f01601f19169290920160200192915050565b606081525f6111da606083018661119d565b93151560208301525060400152919050565b5f80604083850312156111fd575f80fd5b8235915061117260208401611115565b5f805f8060808587031215611220575f80fd5b843567ffffffffffffffff80821115611237575f80fd5b61124388838901611077565b955061125160208801611115565b945060408701359350606087013591508082111561126d575f80fd5b5061127a87828801611077565b91505092959194509250565b5f60208284031215611296575f80fd5b61129f82611115565b9392505050565b5f67ffffffffffffffff8211156112bf576112bf611032565b5060051b60200190565b5f82601f8301126112d8575f80fd5b813560206112ed6112e8836112a6565b611046565b8083825260208201915060208460051b87010193508684111561130e575f80fd5b602086015b8481101561132a5780358352918301918301611313565b509695505050505050565b5f805f60608486031215611347575f80fd5b833567ffffffffffffffff8082111561135e575f80fd5b61136a87838801611077565b9450602091508186013581811115611380575f80fd5b8601601f81018813611390575f80fd5b803561139e6112e8826112a6565b81815260059190911b8201840190848101908a8311156113bc575f80fd5b928501925b828410156113e1576113d284611115565b825292850192908501906113c1565b965050505060408601359150808211156113f9575f80fd5b50611406868287016112c9565b9150509250925092565b604080825283519082018190525f906020906060840190828701845b828110156114515781516001600160a01b03168452928401929084019060010161142c565b505050838103828501528451808252858301918301905f5b8181101561148557835183529284019291840191600101611469565b5090979650505050505050565b600181811c908216806114a657607f821691505b6020821081036114c457634e487b7160e01b5f52602260045260245ffd5b50919050565b5f82516114db81846020870161117b565b9190910192915050565b5f602082840312156114f5575f80fd5b8151801515811461129f575f80fd5b634e487b7160e01b5f52601160045260245ffd5b8082018082111561152b5761152b611504565b92915050565b602081525f61129f602083018461119d565b5f60208284031215611553575f80fd5b5051919050565b8181038181111561152b5761152b611504565b634e487b7160e01b5f52603260045260245ffd5b808202811582820484141761152b5761152b611504565b5f826115b257634e487b7160e01b5f52601260045260245ffd5b500490565b601f8211156115fe57805f5260205f20601f840160051c810160208510156115dc5750805b601f840160051c820191505b818110156115fb575f81556001016115e8565b50505b505050565b815167ffffffffffffffff81111561161d5761161d611032565b6116318161162b8454611492565b846115b7565b602080601f831160018114611664575f841561164d5750858301515b5f19600386901b1c1916600185901b1785556103ee565b5f85815260208120601f198616915b8281101561169257888601518255948401946001909101908401611673565b50858210156116af57878501515f19600388901b60f8161c191681555b5050505050600190811b0190555056fe9b779b17422d0df92223018b32b4d1fa46e071723d6817e2486d003becc55f00a2646970667358221220ab4a18af4216fd13be4f26421faa39be2eff117b01cae7b1c4412910235caaeb64736f6c63430008180033","linkReferences":{}},"methodIdentifiers":{"PERCENTAGE_DENOMINATOR()":"b3cd4254","claimTicketNFT(uint256,address)":"a74c99b7","completeEvent(string)":"eafd221a","createEvent(string,address[],uint256[])":"fce40097","eventEscrowBalance(string)":"0c711a74","events(string)":"9673d6a3","getEventReceivers(string)":"ff43d9c4","getReceiverBalance(string,address)":"d6275424","owner()":"8da5cb5b","purchaseTicket(string,address,uint256,string)":"c4fd48d3","receiverBalances(string,address)":"13e39cd6","renounceOwnership()":"715018a6","ticketNFT()":"b393391b","transferOwnership(address)":"f2fde38b","wIDRToken()":"154d507a","withdraw(string,address)":"dd48622e"},"id":42}