{"abi":[{"type":"constructor","inputs":[],"stateMutability":"nonpayable"},{"type":"function","name":"approve","inputs":[{"name":"to","type":"address","internalType":"address"},{"name":"tokenId","type":"uint256","internalType":"uint256"}],"outputs":[],"stateMutability":"nonpayable"},{"type":"function","name":"balanceOf","inputs":[{"name":"owner","type":"address","internalType":"address"}],"outputs":[{"name":"","type":"uint256","internalType":"uint256"}],"stateMutability":"view"},{"type":"function","name":"claimNFT","inputs":[{"name":"tokenId","type":"uint256","internalType":"uint256"},{"name":"claimer","type":"address","internalType":"address"}],"outputs":[],"stateMutability":"nonpayable"},{"type":"function","name":"claimed","inputs":[{"name":"","type":"uint256","internalType":"uint256"}],"outputs":[{"name":"","type":"bool","internalType":"bool"}],"stateMutability":"view"},{"type":"function","name":"getApproved","inputs":[{"name":"tokenId","type":"uint256","internalType":"uint256"}],"outputs":[{"name":"","type":"address","internalType":"address"}],"stateMutability":"view"},{"type":"function","name":"isApprovedForAll","inputs":[{"name":"owner","type":"address","internalType":"address"},{"name":"operator","type":"address","internalType":"address"}],"outputs":[{"name":"","type":"bool","internalType":"bool"}],"stateMutability":"view"},{"type":"function","name":"mintToVault","inputs":[{"name":"metadataURI","type":"string","internalType":"string"}],"outputs":[{"name":"","type":"uint256","internalType":"uint256"}],"stateMutability":"nonpayable"},{"type":"function","name":"name","inputs":[],"outputs":[{"name":"","type":"string","internalType":"string"}],"stateMutability":"view"},{"type":"function","name":"owner","inputs":[],"outputs":[{"name":"","type":"address","internalType":"address"}],"stateMutability":"view"},{"type":"function","name":"ownerOf","inputs":[{"name":"tokenId","type":"uint256","internalType":"uint256"}],"outputs":[{"name":"","type":"address","internalType":"address"}],"stateMutability":"view"},{"type":"function","name":"renounceOwnership","inputs":[],"outputs":[],"stateMutability":"nonpayable"},{"type":"function","name":"safeTransferFrom","inputs":[{"name":"from","type":"address","internalType":"address"},{"name":"to","type":"address","internalType":"address"},{"name":"tokenId","type":"uint256","internalType":"uint256"}],"outputs":[],"stateMutability":"nonpayable"},{"type":"function","name":"safeTransferFrom","inputs":[{"name":"from","type":"address","internalType":"address"},{"name":"to","type":"address","internalType":"address"},{"name":"tokenId","type":"uint256","internalType":"uint256"},{"name":"data","type":"bytes","internalType":"bytes"}],"outputs":[],"stateMutability":"nonpayable"},{"type":"function","name":"setApprovalForAll","inputs":[{"name":"operator","type":"address","internalType":"address"},{"name":"approved","type":"bool","internalType":"bool"}],"outputs":[],"stateMutability":"nonpayable"},{"type":"function","name":"supportsInterface","inputs":[{"name":"interfaceId","type":"bytes4","internalType":"bytes4"}],"outputs":[{"name":"","type":"bool","internalType":"bool"}],"stateMutability":"view"},{"type":"function","name":"symbol","inputs":[],"outputs":[{"name":"","type":"string","internalType":"string"}],"stateMutability":"view"},{"type":"function","name":"tokenURI","inputs":[{"name":"tokenId","type":"uint256","internalType":"uint256"}],"outputs":[{"name":"","type":"string","internalType":"string"}],"stateMutability":"view"},{"type":"function","name":"transferFrom","inputs":[{"name":"from","type":"address","internalType":"address"},{"name":"to","type":"address","internalType":"address"},{"name":"tokenId","type":"uint256","internalType":"uint256"}],"outputs":[],"stateMutability":"nonpayable"},{"type":"function","name":"transferOwnership","inputs":[{"name":"newOwner","type":"address","internalType":"address"}],"outputs":[],"stateMutability":"nonpayable"},{"type":"function","name":"vaultAddress","inputs":[],"outputs":[{"name":"","type":"address","internalType":"address"}],"stateMutability":"view"},{"type":"event","name":"Approval","inputs":[{"name":"owner","type":"address","indexed":true,"internalType":"address"},{"name":"approved","type":"address","indexed":true,"internalType":"address"},{"name":"tokenId","type":"uint256","indexed":true,"internalType":"uint256"}],"anonymous":false},{"type":"event","name":"ApprovalForAll","inputs":[{"name":"owner","type":"address","indexed":true,"internalType":"address"},{"name":"operator","type":"address","indexed":true,"internalType":"address"},{"name":"approved","type":"bool","indexed":false,"internalType":"bool"}],"anonymous":false},{"type":"event","name":"NFTClaimed","inputs":[{"name":"tokenId","type":"uint256","indexed":true,"internalType":"uint256"},{"name":"claimer","type":"address","indexed":true,"internalType":"address"}],"anonymous":false},{"type":"event","name":"NFTMinted","inputs":[{"name":"tokenId","type":"uint256","indexed":true,"internalType":"uint256"},{"name":"to","type":"address","indexed":true,"internalType":"address"},{"name":"metadataURI","type":"string","indexed":false,"internalType":"string"}],"anonymous":false},{"type":"event","name":"OwnershipTransferred","inputs":[{"name":"previousOwner","type":"address","indexed":true,"internalType":"address"},{"name":"newOwner","type":"address","indexed":true,"internalType":"address"}],"anonymous":false},{"type":"event","name":"Transfer","inputs":[{"name":"from","type":"address","indexed":true,"internalType":"address"},{"name":"to","type":"address","indexed":true,"internalType":"address"},{"name":"tokenId","type":"uint256","indexed":true,"internalType":"uint256"}],"anonymous":false},{"type":"error","name":"ERC721IncorrectOwner","inputs":[{"name":"sender","type":"address","internalType":"address"},{"name":"tokenId","type":"uint256","internalType":"uint256"},{"name":"owner","type":"address","internalType":"address"}]},{"type":"error","name":"ERC721InsufficientApproval","inputs":[{"name":"operator","type":"address","internalType":"address"},{"name":"tokenId","type":"uint256","internalType":"uint256"}]},{"type":"error","name":"ERC721InvalidApprover","inputs":[{"name":"approver","type":"address","internalType":"address"}]},{"type":"error","name":"ERC721InvalidOperator","inputs":[{"name":"operator","type":"address","internalType":"address"}]},{"type":"error","name":"ERC721InvalidOwner","inputs":[{"name":"owner","type":"address","internalType":"address"}]},{"type":"error","name":"ERC721InvalidReceiver","inputs":[{"name":"receiver","type":"address","internalType":"address"}]},{"type":"error","name":"ERC721InvalidSender","inputs":[{"name":"sender","type":"address","internalType":"address"}]},{"type":"error","name":"ERC721NonexistentToken","inputs":[{"name":"tokenId","type":"uint256","internalType":"uint256"}]},{"type":"error","name":"OwnableInvalidOwner","inputs":[{"name":"owner","type":"address","internalType":"address"}]},{"type":"error","name":"OwnableUnauthorizedAccount","inputs":[{"name":"account","type":"address","internalType":"address"}]}],"bytecode":{"object":"0x608060405234801562000010575f80fd5b503360405180604001604052806012815260200171135e535a5b99551a58dad95d12dd4813919560721b8152506040518060400160405280600581526020016426a6aa25a760d91b815250815f90816200006b9190620001be565b5060016200007a8282620001be565b5050506001600160a01b038116620000ab57604051631e4fbdf760e01b81525f600482015260240160405180910390fd5b620000b681620000cf565b50600a80546001600160a01b031916301790556200028a565b600680546001600160a01b038381166001600160a01b0319831681179093556040519116919082907f8be0079c531659141344cd1fd0a4f28419497f9722a3daafe3b4186f6b6457e0905f90a35050565b634e487b7160e01b5f52604160045260245ffd5b600181811c908216806200014957607f821691505b6020821081036200016857634e487b7160e01b5f52602260045260245ffd5b50919050565b601f821115620001b957805f5260205f20601f840160051c81016020851015620001955750805b601f840160051c820191505b81811015620001b6575f8155600101620001a1565b50505b505050565b81516001600160401b03811115620001da57620001da62000120565b620001f281620001eb845462000134565b846200016e565b602080601f83116001811462000228575f8415620002105750858301515b5f19600386901b1c1916600185901b17855562000282565b5f85815260208120601f198616915b82811015620002585788860151825594840194600190910190840162000237565b50858210156200027657878501515f19600388901b60f8161c191681555b505060018460011b0185555b505050505050565b61138380620002985f395ff3fe608060405234801561000f575f80fd5b5060043610610127575f3560e01c806370a08231116100a9578063b88d4fde1161006e578063b88d4fde1461026f578063c87b56dd14610282578063dbe7e3bd14610295578063e985e9c5146102b7578063f2fde38b146102ca575f80fd5b806370a0823114610228578063715018a61461023b5780638da5cb5b1461024357806395d89b4114610254578063a22cb4651461025c575f80fd5b80632c75ce50116100ef5780632c75ce50146101bb57806342842e0e146101dc578063430bf08a146101ef57806362432b58146102025780636352211e14610215575f80fd5b806301ffc9a71461012b57806306fdde0314610153578063081812fc14610168578063095ea7b31461019357806323b872dd146101a8575b5f80fd5b61013e610139366004610eae565b6102dd565b60405190151581526020015b60405180910390f35b61015b61032e565b60405161014a9190610f13565b61017b610176366004610f25565b6103bd565b6040516001600160a01b03909116815260200161014a565b6101a66101a1366004610f52565b6103e4565b005b6101a66101b6366004610f7a565b6103f3565b6101ce6101c936600461103a565b610481565b60405190815260200161014a565b6101a66101ea366004610f7a565b610520565b600a5461017b906001600160a01b031681565b6101a661021036600461107f565b61053f565b61017b610223366004610f25565b610659565b6101ce6102363660046110a9565b610663565b6101a66106a8565b6006546001600160a01b031661017b565b61015b6106bb565b6101a661026a3660046110c2565b6106ca565b6101a661027d3660046110fb565b6106d5565b61015b610290366004610f25565b6106ed565b61013e6102a3366004610f25565b60096020525f908152604090205460ff1681565b61013e6102c5366004611172565b6107da565b6101a66102d83660046110a9565b610807565b5f6001600160e01b031982166380ac58cd60e01b148061030d57506001600160e01b03198216635b5e139f60e01b145b8061032857506301ffc9a760e01b6001600160e01b03198316145b92915050565b60605f805461033c9061119a565b80601f01602080910402602001604051908101604052809291908181526020018280546103689061119a565b80156103b35780601f1061038a576101008083540402835291602001916103b3565b820191905f5260205f20905b81548152906001019060200180831161039657829003601f168201915b5050505050905090565b5f6103c782610844565b505f828152600460205260409020546001600160a01b0316610328565b6103ef82823361087c565b5050565b6001600160a01b03821661042157604051633250574960e11b81525f60048201526024015b60405180910390fd5b5f61042d838333610889565b9050836001600160a01b0316816001600160a01b03161461047b576040516364283d7b60e01b81526001600160a01b0380861660048301526024820184905282166044820152606401610418565b50505050565b5f61048a61097b565b600780545f918261049a836111d2565b90915550600a549091506104b7906001600160a01b0316826109a8565b5f8181526008602052604090206104ce848261123a565b50600a546040516001600160a01b039091169082907f06becd955c918828f6e985541acbf49cc842c9e9bd569fffc7698e721ef1357590610510908790610f13565b60405180910390a390505b919050565b61053a83838360405180602001604052805f8152506106d5565b505050565b61054761097b565b600a546001600160a01b031661055c83610659565b6001600160a01b0316146105a55760405162461bcd60e51b815260206004820152601060248201526f139195081b9bdd081a5b881d985d5b1d60821b6044820152606401610418565b5f8281526009602052604090205460ff16156105f15760405162461bcd60e51b815260206004820152600b60248201526a1391950818db185a5b595960aa1b6044820152606401610418565b5f828152600960205260409020805460ff19166001179055600a54610620906001600160a01b03168284610a09565b6040516001600160a01b0382169083907fec5f0dee1fc3c7beab746dbd5883eee3f1c9bc07fe02dd318c553c5243f52fea905f90a35050565b5f61032882610844565b5f6001600160a01b03821661068d576040516322718ad960e21b81525f6004820152602401610418565b506001600160a01b03165f9081526003602052604090205490565b6106b061097b565b6106b95f610ab6565b565b60606001805461033c9061119a565b6103ef338383610b07565b6106e08484846103f3565b61047b3385858585610ba5565b60605f6106f983610659565b6001600160a01b03160361073f5760405162461bcd60e51b815260206004820152600d60248201526c24b73b30b634b2103a37b5b2b760991b6044820152606401610418565b5f82815260086020526040902080546107579061119a565b80601f01602080910402602001604051908101604052809291908181526020018280546107839061119a565b80156107ce5780601f106107a5576101008083540402835291602001916107ce565b820191905f5260205f20905b8154815290600101906020018083116107b157829003601f168201915b50505050509050919050565b6001600160a01b039182165f90815260056020908152604080832093909416825291909152205460ff1690565b61080f61097b565b6001600160a01b03811661083857604051631e4fbdf760e01b81525f6004820152602401610418565b61084181610ab6565b50565b5f818152600260205260408120546001600160a01b03168061032857604051637e27328960e01b815260048101849052602401610418565b61053a8383836001610ccd565b5f828152600260205260408120546001600160a01b03908116908316156108b5576108b5818486610dd1565b6001600160a01b038116156108ef576108d05f855f80610ccd565b6001600160a01b0381165f90815260036020526040902080545f190190555b6001600160a01b0385161561091d576001600160a01b0385165f908152600360205260409020805460010190555b5f8481526002602052604080822080546001600160a01b0319166001600160a01b0389811691821790925591518793918516917fddf252ad1be2c89b69c2b068fc378daa952ba7f163c4a11628f55a4df523b3ef91a4949350505050565b6006546001600160a01b031633146106b95760405163118cdaa760e01b8152336004820152602401610418565b6001600160a01b0382166109d157604051633250574960e11b81525f6004820152602401610418565b5f6109dd83835f610889565b90506001600160a01b0381161561053a576040516339e3563760e11b81525f6004820152602401610418565b6001600160a01b038216610a3257604051633250574960e11b81525f6004820152602401610418565b5f610a3e83835f610889565b90506001600160a01b038116610a6a57604051637e27328960e01b815260048101839052602401610418565b836001600160a01b0316816001600160a01b03161461047b576040516364283d7b60e01b81526001600160a01b0380861660048301526024820184905282166044820152606401610418565b600680546001600160a01b038381166001600160a01b0319831681179093556040519116919082907f8be0079c531659141344cd1fd0a4f28419497f9722a3daafe3b4186f6b6457e0905f90a35050565b6001600160a01b038216610b3957604051630b61174360e31b81526001600160a01b0383166004820152602401610418565b6001600160a01b038381165f81815260056020908152604080832094871680845294825291829020805460ff191686151590811790915591519182527f17307eab39ab6107e8899845ad3d59bd9653f200f220920489ca2b5937696c31910160405180910390a3505050565b6001600160a01b0383163b15610cc657604051630a85bd0160e11b81526001600160a01b0384169063150b7a0290610be79088908890879087906004016112f6565b6020604051808303815f875af1925050508015610c21575060408051601f3d908101601f19168201909252610c1e91810190611332565b60015b610c88573d808015610c4e576040519150601f19603f3d011682016040523d82523d5f602084013e610c53565b606091505b5080515f03610c8057604051633250574960e11b81526001600160a01b0385166004820152602401610418565b805160208201fd5b6001600160e01b03198116630a85bd0160e11b14610cc457604051633250574960e11b81526001600160a01b0385166004820152602401610418565b505b5050505050565b8080610ce157506001600160a01b03821615155b15610da2575f610cf084610844565b90506001600160a01b03831615801590610d1c5750826001600160a01b0316816001600160a01b031614155b8015610d2f5750610d2d81846107da565b155b15610d585760405163a9fbf51f60e01b81526001600160a01b0384166004820152602401610418565b8115610da05783856001600160a01b0316826001600160a01b03167f8c5be1e5ebec7d5bd14f71427d1e84f3dd0314c0f7b2291e5b200ac8c7c3b92560405160405180910390a45b505b50505f90815260046020526040902080546001600160a01b0319166001600160a01b0392909216919091179055565b610ddc838383610e35565b61053a576001600160a01b038316610e0a57604051637e27328960e01b815260048101829052602401610418565b60405163177e802f60e01b81526001600160a01b038316600482015260248101829052604401610418565b5f6001600160a01b03831615801590610e915750826001600160a01b0316846001600160a01b03161480610e6e5750610e6e84846107da565b80610e9157505f828152600460205260409020546001600160a01b038481169116145b949350505050565b6001600160e01b031981168114610841575f80fd5b5f60208284031215610ebe575f80fd5b8135610ec981610e99565b9392505050565b5f81518084525f5b81811015610ef457602081850181015186830182015201610ed8565b505f602082860101526020601f19601f83011685010191505092915050565b602081525f610ec96020830184610ed0565b5f60208284031215610f35575f80fd5b5035919050565b80356001600160a01b038116811461051b575f80fd5b5f8060408385031215610f63575f80fd5b610f6c83610f3c565b946020939093013593505050565b5f805f60608486031215610f8c575f80fd5b610f9584610f3c565b9250610fa360208501610f3c565b9150604084013590509250925092565b634e487b7160e01b5f52604160045260245ffd5b5f67ffffffffffffffff80841115610fe157610fe1610fb3565b604051601f8501601f19908116603f0116810190828211818310171561100957611009610fb3565b81604052809350858152868686011115611021575f80fd5b858560208301375f602087830101525050509392505050565b5f6020828403121561104a575f80fd5b813567ffffffffffffffff811115611060575f80fd5b8201601f81018413611070575f80fd5b610e9184823560208401610fc7565b5f8060408385031215611090575f80fd5b823591506110a060208401610f3c565b90509250929050565b5f602082840312156110b9575f80fd5b610ec982610f3c565b5f80604083850312156110d3575f80fd5b6110dc83610f3c565b9150602083013580151581146110f0575f80fd5b809150509250929050565b5f805f806080858703121561110e575f80fd5b61111785610f3c565b935061112560208601610f3c565b925060408501359150606085013567ffffffffffffffff811115611147575f80fd5b8501601f81018713611157575f80fd5b61116687823560208401610fc7565b91505092959194509250565b5f8060408385031215611183575f80fd5b61118c83610f3c565b91506110a060208401610f3c565b600181811c908216806111ae57607f821691505b6020821081036111cc57634e487b7160e01b5f52602260045260245ffd5b50919050565b5f600182016111ef57634e487b7160e01b5f52601160045260245ffd5b5060010190565b601f82111561053a57805f5260205f20601f840160051c8101602085101561121b5750805b601f840160051c820191505b81811015610cc6575f8155600101611227565b815167ffffffffffffffff81111561125457611254610fb3565b61126881611262845461119a565b846111f6565b602080601f83116001811461129b575f84156112845750858301515b5f19600386901b1c1916600185901b178555610cc4565b5f85815260208120601f198616915b828110156112c9578886015182559484019460019091019084016112aa565b50858210156112e657878501515f19600388901b60f8161c191681555b5050505050600190811b01905550565b6001600160a01b03858116825284166020820152604081018390526080606082018190525f9061132890830184610ed0565b9695505050505050565b5f60208284031215611342575f80fd5b8151610ec981610e9956fea2646970667358221220ce000022f7278fa9449fe81ea871ea0ff45461ef88d5cc862cdb01a0cb3028ff64736f6c63430008180033","linkReferences":{}},"methodIdentifiers":{"approve(address,uint256)":"095ea7b3","balanceOf(address)":"70a08231","claimNFT(uint256,address)":"62432b58","claimed(uint256)":"dbe7e3bd","getApproved(uint256)":"081812fc","isApprovedForAll(address,address)":"e985e9c5","mintToVault(string)":"2c75ce50","name()":"06fdde03","owner()":"8da5cb5b","ownerOf(uint256)":"6352211e","renounceOwnership()":"715018a6","safeTransferFrom(address,address,uint256)":"42842e0e","safeTransferFrom(address,address,uint256,bytes)":"b88d4fde","setApprovalForAll(address,bool)":"a22cb465","supportsInterface(bytes4)":"01ffc9a7","symbol()":"95d89b41","tokenURI(uint256)":"c87b56dd","transferFrom(address,address,uint256)":"23b872dd","transferOwnership(address)":"f2fde38b","vaultAddress()":"430bf08a"},"id":43}